{
    "jsonrpc": "2.0",
    "id": 1,
    "result": {
        "blockHash": "0xa82b9ee49c14ea79ba6983a2cf91f86bce8f32b887bde513576459c7b0299386",
        "blockNumber": "0x151b841",
        "from": "0x92e12ebea85129568bc2a5566bea367c036946c8",
        "gas": "0x7191b",
        "gasPrice": "0x2ba2d83d",
        "maxFeePerGas": "0x540ae480",
        "maxPriorityFeePerGas": "0x4b571c0",
        "hash": "0xdd2c0345d1c559797592d1deaf20a04ca1571129bcc0117814e2343cb38d4f0c",
        "input": "0x2213bc0b0000000000000000000000000d0e364aa7852291883c162b22d6d81f6355428f000000000000000000000000a0b86991c6218b36c1d19d4a2e9eb0ce3606eb4800000000000000000000000000000000000000000000000000000000000f42400000000000000000000000000d0e364aa7852291883c162b22d6d81f6355428f00000000000000000000000000000000000000000000000000000000000000a000000000000000000000000000000000000000000000000000000000000009c41fff991f00000000000000000000000092e12ebea85129568bc2a5566bea367c036946c800000000000000000000000095ad61b0a150d79219dcf64e1e6cc01f0b64c4ce000000000000000000000000000000000000000000000e0784d9c87d94a8117000000000000000000000000000000000000000000000000000000000000000a0e39d71a20266d3a1242141272068d40000000000000000000000000000000000000000000000000000000000000000000000000000000000000000000000000600000000000000000000000000000000000000000000000000000000000000c000000000000000000000000000000000000000000000000000000000000001e0000000000000000000000000000000000000000000000000000000000000038000000000000000000000000000000000000000000000000000000000000004c0000000000000000000000000000000000000000000000000000000000000060000000000000000000000000000000000000000000000000000000000000007a000000000000000000000000000000000000000000000000000000000000000e4c1fb425e0000000000000000000000000d0e364aa7852291883c162b22d6d81f6355428f000000000000000000000000a0b86991c6218b36c1d19d4a2e9eb0ce3606eb4800000000000000000000000000000000000000000000000000000000000f424000000000000000000000000000000000000000000000000000000000000000000000000000000000000000000000000000000000000000000000000067e444dd00000000000000000000000000000000000000000000000000000000000000c00000000000000000000000000000000000000000000000000000000000000000000000000000000000000000000000000000000000000000000000000000000000000000000000000000000000000000000000000000000000000164af72634f0000000000000000000000000d0e364aa7852291883c162b22d6d81f6355428f000000000000000000000000a0b86991c6218b36c1d19d4a2e9eb0ce3606eb48000000000000000000000000000000000000000000000000000000000000271000000000000000000000000000000000000000000000000000000000000000000000000000000000000000000000000000000000000000000000000000000002000000000000000000000000000000000000000000000000ffffffffffffffc5000000000000000000000000000000000000000000000000000000000000010000000000000000000000000000000000000000000000000000000000000000000000000000000000000000000000000000000000000000000000000000000034271001eeeeeeeeeeeeeeeeeeeeeeeeeeeeeeeeeeeeeeee0001f400000a000000000000000000000000000000000000000000000000000000000000000000000000000000000000000000000000000000000000000000000000000000000000000000000000000000000000000000000000000000000000000000010438c9c147000000000000000000000000eeeeeeeeeeeeeeeeeeeeeeeeeeeeeeeeeeeeeeee0000000000000000000000000000000000000000000000000000000000002710000000000000000000000000c02aaa39b223fe8d0a0e5c4f27ead9083c756cc2000000000000000000000000000000000000000000000000000000000000000400000000000000000000000000000000000000000000000000000000000000a00000000000000000000000000000000000000000000000000000000000000024d0e30db000000000000000000000000000000000000000000000000000000000000000000000000000000000000000000000000000000000000000000000000000000000000000000000000000000000000000000000000000000000000000000000000000000000000000000000000000000000000000000000010438c9c147000000000000000000000000c02aaa39b223fe8d0a0e5c4f27ead9083c756cc20000000000000000000000000000000000000000000000000000000000002710000000000000000000000000c02aaa39b223fe8d0a0e5c4f27ead9083c756cc2000000000000000000000000000000000000000000000000000000000000000400000000000000000000000000000000000000000000000000000000000000a000000000000000000000000000000000000000000000000000000000000000242e1a7d4d000000000000000000000000000000000000000000000000000000000000000000000000000000000000000000000000000000000000000000000000000000000000000000000000000000000000000000000000000000000000000000000000000000000000000000000000000000000000000000000164af72634f0000000000000000000000000d0e364aa7852291883c162b22d6d81f6355428f000000000000000000000000eeeeeeeeeeeeeeeeeeeeeeeeeeeeeeeeeeeeeeee000000000000000000000000000000000000000000000000000000000000271000000000000000000000000000000000000000000000000000000000000000000000000000000000000000000000000000000000000000000000000000000002000000000000000000000000000000000000000000000000ffffffffffffffc500000000000000000000000000000000000000000000000000000000000001000000000000000000000000000000000000000000000000000000000000000000000000000000000000000000000000000000000000000000000000000000003427100195ad61b0a150d79219dcf64e1e6cc01f0b64c4ce0027100000c8000000000000000000000000000000000000000000000000000000000000000000000000000000000000000000000000000000000000000000000000000000000000000000000000000000000000000000000000000000000000000000012438c9c14700000000000000000000000095ad61b0a150d79219dcf64e1e6cc01f0b64c4ce000000000000000000000000000000000000000000000000000000000000005500000000000000000000000095ad61b0a150d79219dcf64e1e6cc01f0b64c4ce000000000000000000000000000000000000000000000000000000000000002400000000000000000000000000000000000000000000000000000000000000a00000000000000000000000000000000000000000000000000000000000000044a9059cbb0000000000000000000000007afa9d836d2fccf172b66622625e56404e465dbd0000000000000000000000000000000000000000000000000000000000000000000000000000000000000000000000000000000000000000000000000000000000000000000000000000000000000000000000000000000000000000000000000000000000000000000000000000000000000000",
        "nonce": "0x4",
        "to": "0x0000000000001ff3684f28c67538d4d072c22734",
        "transactionIndex": "0x35",
        "value": "0x0",
        "type": "0x2",
        "accessList": [],
        "chainId": "0x1",
        "v": "0x1",
        "r": "0x84f9fa394af52883b66c7b65f921aceac201a7b0f7ffbc78fbeea7695a109ad5",
        "s": "0x5ca82e86c3174e09e1bfb23b3e91f3d707ed1cd1181cd920c5dc5fbb8ecba914",
        "yParity": "0x1"
    },
    "rlpEncoded" : "0x02f90b1101048404b571c084540ae4808307191b940000000000001ff3684f28c67538d4d072c2273480b90aa42213bc0b0000000000000000000000000d0e364aa7852291883c162b22d6d81f6355428f000000000000000000000000a0b86991c6218b36c1d19d4a2e9eb0ce3606eb4800000000000000000000000000000000000000000000000000000000000f42400000000000000000000000000d0e364aa7852291883c162b22d6d81f6355428f00000000000000000000000000000000000000000000000000000000000000a000000000000000000000000000000000000000000000000000000000000009c41fff991f00000000000000000000000092e12ebea85129568bc2a5566bea367c036946c800000000000000000000000095ad61b0a150d79219dcf64e1e6cc01f0b64c4ce000000000000000000000000000000000000000000000e0784d9c87d94a8117000000000000000000000000000000000000000000000000000000000000000a0e39d71a20266d3a1242141272068d40000000000000000000000000000000000000000000000000000000000000000000000000000000000000000000000000600000000000000000000000000000000000000000000000000000000000000c000000000000000000000000000000000000000000000000000000000000001e0000000000000000000000000000000000000000000000000000000000000038000000000000000000000000000000000000000000000000000000000000004c0000000000000000000000000000000000000000000000000000000000000060000000000000000000000000000000000000000000000000000000000000007a000000000000000000000000000000000000000000000000000000000000000e4c1fb425e0000000000000000000000000d0e364aa7852291883c162b22d6d81f6355428f000000000000000000000000a0b86991c6218b36c1d19d4a2e9eb0ce3606eb4800000000000000000000000000000000000000000000000000000000000f424000000000000000000000000000000000000000000000000000000000000000000000000000000000000000000000000000000000000000000000000067e444dd00000000000000000000000000000000000000000000000000000000000000c00000000000000000000000000000000000000000000000000000000000000000000000000000000000000000000000000000000000000000000000000000000000000000000000000000000000000000000000000000000000000164af72634f0000000000000000000000000d0e364aa7852291883c162b22d6d81f6355428f000000000000000000000000a0b86991c6218b36c1d19d4a2e9eb0ce3606eb48000000000000000000000000000000000000000000000000000000000000271000000000000000000000000000000000000000000000000000000000000000000000000000000000000000000000000000000000000000000000000000000002000000000000000000000000000000000000000000000000ffffffffffffffc5000000000000000000000000000000000000000000000000000000000000010000000000000000000000000000000000000000000000000000000000000000000000000000000000000000000000000000000000000000000000000000000034271001eeeeeeeeeeeeeeeeeeeeeeeeeeeeeeeeeeeeeeee0001f400000a000000000000000000000000000000000000000000000000000000000000000000000000000000000000000000000000000000000000000000000000000000000000000000000000000000000000000000000000000000000000000000010438c9c147000000000000000000000000eeeeeeeeeeeeeeeeeeeeeeeeeeeeeeeeeeeeeeee0000000000000000000000000000000000000000000000000000000000002710000000000000000000000000c02aaa39b223fe8d0a0e5c4f27ead9083c756cc2000000000000000000000000000000000000000000000000000000000000000400000000000000000000000000000000000000000000000000000000000000a00000000000000000000000000000000000000000000000000000000000000024d0e30db000000000000000000000000000000000000000000000000000000000000000000000000000000000000000000000000000000000000000000000000000000000000000000000000000000000000000000000000000000000000000000000000000000000000000000000000000000000000000000000010438c9c147000000000000000000000000c02aaa39b223fe8d0a0e5c4f27ead9083c756cc20000000000000000000000000000000000000000000000000000000000002710000000000000000000000000c02aaa39b223fe8d0a0e5c4f27ead9083c756cc2000000000000000000000000000000000000000000000000000000000000000400000000000000000000000000000000000000000000000000000000000000a000000000000000000000000000000000000000000000000000000000000000242e1a7d4d000000000000000000000000000000000000000000000000000000000000000000000000000000000000000000000000000000000000000000000000000000000000000000000000000000000000000000000000000000000000000000000000000000000000000000000000000000000000000000000164af72634f0000000000000000000000000d0e364aa7852291883c162b22d6d81f6355428f000000000000000000000000eeeeeeeeeeeeeeeeeeeeeeeeeeeeeeeeeeeeeeee000000000000000000000000000000000000000000000000000000000000271000000000000000000000000000000000000000000000000000000000000000000000000000000000000000000000000000000000000000000000000000000002000000000000000000000000000000000000000000000000ffffffffffffffc500000000000000000000000000000000000000000000000000000000000001000000000000000000000000000000000000000000000000000000000000000000000000000000000000000000000000000000000000000000000000000000003427100195ad61b0a150d79219dcf64e1e6cc01f0b64c4ce0027100000c8000000000000000000000000000000000000000000000000000000000000000000000000000000000000000000000000000000000000000000000000000000000000000000000000000000000000000000000000000000000000000000012438c9c14700000000000000000000000095ad61b0a150d79219dcf64e1e6cc01f0b64c4ce000000000000000000000000000000000000000000000000000000000000005500000000000000000000000095ad61b0a150d79219dcf64e1e6cc01f0b64c4ce000000000000000000000000000000000000000000000000000000000000002400000000000000000000000000000000000000000000000000000000000000a00000000000000000000000000000000000000000000000000000000000000044a9059cbb0000000000000000000000007afa9d836d2fccf172b66622625e56404e465dbd0000000000000000000000000000000000000000000000000000000000000000000000000000000000000000000000000000000000000000000000000000000000000000000000000000000000000000000000000000000000000000000000000000000000000000000000000000000000000000c001a084f9fa394af52883b66c7b65f921aceac201a7b0f7ffbc78fbeea7695a109ad5a05ca82e86c3174e09e1bfb23b3e91f3d707ed1cd1181cd920c5dc5fbb8ecba914"
}