{
    "jsonrpc": "2.0",
    "id": 1,
    "result": {
        "accessList": [],
        "blockHash": "0xd20ab77f23688dbd42e3c8fa2d448c070bb4dc9ce5cae8f393e99907fde41755",
        "blockNumber": "0x151b88e",
        "chainId": "0x1",
        "from": "0x0d85129b29781bab8a422b1bcd60b68f45dd2c40",
        "gas": "0x5208",
        "gasPrice": "0x1fcf0b58",
        "hash": "0xd4d9a0482cf4f43d2f712ee6edcf7f6824aed99b5a339b1fae9d093e59c2b394",
        "input": "0x",
        "maxFeePerGas": "0x2835231b",
        "maxPriorityFeePerGas": "0xe195f",
        "nonce": "0x87",
        "r": "0x266af86d7a0de8ad3cad80493401207ac2c7470fd66be304a2efbb33fbabb8a5",
        "s": "0x7e15a5b7a18360eaebfc2635f84abecfbce441037afcacbc39f46af810e9fa5d",
        "to": "0xdfaa75323fb721e5f29d43859390f62cc4b600b8",
        "transactionIndex": "0x61",
        "type": "0x2",
        "v": "0x0",
        "value": "0x20e0e27022b718",
        "yParity": "0x0"
    },
    "rlpEncoded": "0x02f871018187830e195f842835231b82520894dfaa75323fb721e5f29d43859390f62cc4b600b88720e0e27022b71880c080a0266af86d7a0de8ad3cad80493401207ac2c7470fd66be304a2efbb33fbabb8a5a07e15a5b7a18360eaebfc2635f84abecfbce441037afcacbc39f46af810e9fa5d"
}