{
    "jsonrpc": "2.0",
    "id": 1,
    "result": {
        "blockHash": "0xeb8235afc4b60d415a9567f36c0c5a5e4662f0b8c93f5343beb61af105dba6c2",
        "blockNumber": "0x151b18c",
        "from": "0x13fb49bd78e18fff091c0b9019f052f1dd6d7433",
        "gas": "0x18fd1",
        "gasPrice": "0x2b1c92c6",
        "maxFeePerGas": "0x35a4e900",
        "maxPriorityFeePerGas": "0x2faf080",
        "hash": "0xd147a5f40f4224c0ed73777ba74f590c683ab0a4c8553b195d84bc5dfbd3ae0b",
        "input": "0x9f3ce55a00000000000000000000000013fb49bd78e18fff091c0b9019f052f1dd6d743300000000000000000000000000000000000000000000000000000a400e08caa400000000000000000000000000000000000000000000000000000000000000600000000000000000000000000000000000000000000000000000000000000000",
        "nonce": "0x8b",
        "to": "0xd19d4b5d358258f05d7b411e21a1460d11b0876f",
        "transactionIndex": "0xaa",
        "value": "0x166dd3710594aa4",
        "type": "0x2",
        "accessList": [],
        "chainId": "0x1",
        "v": "0x1",
        "r": "0x1fdb8dea465b1fa7c8e77b09a26cbfe1aa2b9b5110a78e39c3414ad516243621",
        "s": "0x716097a1f1e0d8489b9e9cdd91dca9e6207832e26b350b4146dacec914b238dd",
        "yParity": "0x1"
    },
    "rlpEncoded": "0x02f8f901818b8402faf0808435a4e90083018fd194d19d4b5d358258f05d7b411e21a1460d11b0876f880166dd3710594aa4b8849f3ce55a00000000000000000000000013fb49bd78e18fff091c0b9019f052f1dd6d743300000000000000000000000000000000000000000000000000000a400e08caa400000000000000000000000000000000000000000000000000000000000000600000000000000000000000000000000000000000000000000000000000000000c001a01fdb8dea465b1fa7c8e77b09a26cbfe1aa2b9b5110a78e39c3414ad516243621a0716097a1f1e0d8489b9e9cdd91dca9e6207832e26b350b4146dacec914b238dd"
}