{
	"Transaction": {
		"type": "0x2",
		"chainId": "0xc0ddb",
		"nonce": "0x34",
		"to": "0xfeeddeadbeeffeeddeadbeeffeeddead01245678",
		"gas": "0x4523a8",
		"gasPrice": null,
		"maxPriorityFeePerGas": "0x6aed57c",
		"maxFeePerGas": "0x75d1e5f",
		"value": "0x32627d7c",
		"input": "0x",
		"accessList": [],
		"v": "0x1",
		"r": "0xdbeb15ee3893180c4f67753cd08fefe9d0ad6d34b26765ca64e44fa05a184f17",
		"s": "0x6c0181d0d189cbe3ecf8a53abff08b59125e7be1cce26a72994724314ac7ee78",
		"yParity": "0x1",
		"hash": "0x72f76d8d1a390cee05d407c1917eeff23c8d17647a333b137d0c5f6a5ab499ca"
	},
	"signer": "0x6b0d6247f69bd61ee6e9ff6f3d9af1ccd22cc5f7",
	"txHash": "0xc258ad69b1edd06c9ac52f223c9786f4b9f133720c5b039fcc51e9c67d6a7725",
	"rlpEncodedTx": "0x02f872830c0ddb348406aed57c84075d1e5f834523a894feeddeadbeeffeeddeadbeeffeeddead012456788432627d7c80c001a0dbeb15ee3893180c4f67753cd08fefe9d0ad6d34b26765ca64e44fa05a184f17a06c0181d0d189cbe3ecf8a53abff08b59125e7be1cce26a72994724314ac7ee78",
	"ftxNumber": 1,
	"prevFtxRollingHash": "0x0000000000000000000000000000000000000000000000000000000000000000",
	"ftxBlockNumberDeadline": 310,
	"invalidityType": "FilteredAddressFrom",
	"zkParentStateRootHash": "0x71f2678178afb93e136cacb045f55530714f20b1356725e3181dc99d0ef8b591",
	"simulatedExecutionBlockNumber": 82,
	"simulatedExecutionBlockTimestamp": 1683335138,
	"chainID": 1337,
	"baseFee": 7,
	"coinBase": "0x0000000000000000000000000000000000000000",
	"l2BridgeAddress": "0xe537d669ca013d86ebef1d64e40fc74cadc91987",
	"ftxRollingHash": "0x0e356124df8232bf366ac1c6b72d8e6dc7f64458f5aaa5e689f499f0c0c747c3",
	"publicInput": "0x058875852b745add80166d50c80b936939c44bfaad58812bce15d68749a31148",
	"proof": "0x00bc83332fc9a750b912b5858642548a1ee3660bff007a975f4f0cf6168309dfdba90ed353327b170fd2950b97be3089015d3d1567a52f4b676902a8063a9932da3f4a3be61b78b773d429f6ce44e410d1a2facd5de580c8d3a01d7f8f90a8150153069bc597d0697f7bf32ca56ab43df814fcdd15cb3af1c20a4bc1139b23a9f12e14850df7d01d1f95ac6918ca61e0015ac55e91b540476e596781e9cff2161125175d77d4a29db1a8826b5c9e2e464aa0352dd0bda8c8e4d624a55559b5890073908dbf5280a574d5e0408341561f40a4e7613edb05cca327fa1ce84831d2e23405062b46cc63c5ca84c406478ac00173ca62af667135ac68067463fcdfb7fb73ab68e3cf7a5291badf1ecfbb58d49f8e0e16e0db832334361bd77490082f018e06e4d5510202f8a08a15560d69ae1384b15b888da9536ef1347d1d818d43bde4dca655df6d97981599a5e65b39fb01468b60db8ba57121178bfeb1f0c790720e16239f778a05593ad7013d8a9c106f3abd99a92121cd150456ab256d9cdf00aafcedb9a5e37915a6c539aa255fb9f82b4134034d936260aadb4313802569705d618f1e27af52d819c934afeba75900b6f6667dbc3ca90bb5482ddf792749772f3ca23de75827c593dd59aea0206acf6ecd499c8f535e82dbc32f1f82645001a4ab46285767aef220540751054de8a61250ba823cdf00ee3e76bc0a974fb5f517e4e6b2896ec01c2cabc3525fadc900a60526eb2aa203906606ce2560d3b42bd2f5d9d64de5d453a48be076eae011b953f502d460fec9e51e15798856c0fc01539c084f6f4b0f0bd2d48ce1319eb7a4de87cae0d7df2c482a95cc5f9e6ade5be99ee602f620ba53d2bd16de800e9e0031e361d594df2e8c21a81c15612035c501d2a2142639537d0f60a1c3c6a77e78aea1ed2bd3721e5f24210955880f8d0094bc1476742cb104f8600a29b66841919705886ff76ce97e8c99e8a6ab6d6fce683a866ac2e0bfb6a3cbbcd53aec3e019f1bc7754d71290b33bcd9710cc724269e5a5201b4cfe1054853b051d67934b7384dee59d59b6755c9b515ff6d56f50000000707bc1bfb81b8c334ce921dca5cf8d75a6662ebb208e4d290221d40815e4dd3a106e88f0b168fc5f1ca78b3df7b0529fb21ebf4533e1e805d91a9ff35ed100dfd0834aab482418b9f589d0ff13579edfee4362c8c34c54fc27b4c170ed55719b702a95e7e71923fafaeea6d4785decd3d7ac908fdbfceee2ae8689aa08a368e0c07436a071c7b438342bfdc61a3c60b9511000c3de609921dc0699ef278111ef710fb199602bda96f45d1b6ebe11bc9e577134c34179f5893ad13d7afe477d1df0b7ceb52e65454496dec744cecf007cd030b6b10751559981db247a4ddf410a500234aaf3602831f13e7d6927d92d44df55b2fbf1dce49b87c2d476e6cb6dfa8a52c4222d5f24006ffb6e5c49a316bf900792c8da3e373e051e1656312965aba50547c97d6e9277bb23312c599d603ebfd9f3ccc6abc4162674c06f77260603c07f0133db9fbf43390e7c038623a56ba2f2437cac804984534f5f0df6a0603e40000000100421adddf28b05c2f090ea86ce61556af348d12c9003636488d10d0788e2d586be8f0bef04cb0c8e7e09e8606bc5dbc0144cb75c8aeab77ccfbbcf426f44835e8581db7a77371fcd15b2753f6931530d3a4367aabd3e29a6db0a12b22a035af",
	"verifyingKeyShaSum": "0x26afc949874c05d4df7d592fa6da40ae80533db2c7ec11734a7186d17d817703",
	"proverMode": "dev",
	"proverVersion": "4.0.0"
}