{
	"Transaction": {
		"type": "0x2",
		"chainId": "0xc0ddb",
		"nonce": "0x2",
		"to": "0xfeeddeadbeeffeeddeadbeeffeeddead01245678",
		"gas": "0x4523a8",
		"gasPrice": null,
		"maxPriorityFeePerGas": "0x6aed57c",
		"maxFeePerGas": "0x75d1e5f",
		"value": "0x32627d7c",
		"input": "0x",
		"accessList": [
			{
				"address": "0xaaaaaaaaaaaaaaaaaaaaaaaaaaaaaaaaaaaaaaaa",
				"storageKeys": [
					"0xaaaaaaaaaaaaaaaaaaaaaaaaaaaaaaaaaaaaaaaaaaaaaaaaaaaaaaaaaaaaaaaa",
					"0xffffffffffffffffffffffffffffffffffffffffffffffffffffffffffffffff"
				]
			}
		],
		"v": "0x0",
		"r": "0x72cbf06f569f240ce8dee7cc3805dd714c98d52388afc022801e741bf740d298",
		"s": "0x7acac7e09642385ee5e3ec4dcaa38d6f30a840ea9d290a84084c5e93d50a5ede",
		"yParity": "0x0",
		"hash": "0x3aa7648351cd09101ca7045a0c21315495c68ccd6ac3d71d250e637ec8a04daa"
	},
	"signer": "0xca29fa76bacc2d9d2cd5f779df601cc9f1225ff1",
	"txHash": "0xb3070ae3ee744dbafdb392a989aec9f299761d6163f6d4390f2593d37bb625b2",
	"rlpEncodedTx": "0x02f8ce830c0ddb028406aed57c84075d1e5f834523a894feeddeadbeeffeeddeadbeeffeeddead012456788432627d7c80f85bf85994aaaaaaaaaaaaaaaaaaaaaaaaaaaaaaaaaaaaaaaaf842a0aaaaaaaaaaaaaaaaaaaaaaaaaaaaaaaaaaaaaaaaaaaaaaaaaaaaaaaaaaaaaaaaa0ffffffffffffffffffffffffffffffffffffffffffffffffffffffffffffffff80a072cbf06f569f240ce8dee7cc3805dd714c98d52388afc022801e741bf740d298a07acac7e09642385ee5e3ec4dcaa38d6f30a840ea9d290a84084c5e93d50a5ede",
	"ftxNumber": 2,
	"prevFtxRollingHash": "0x0e356124df8232bf366ac1c6b72d8e6dc7f64458f5aaa5e689f499f0c0c747c3",
	"ftxBlockNumberDeadline": 400,
	"invalidityType": "BadBalance",
	"zkParentStateRootHash": "0x71f2678178afb93e136cacb045f55530714f20b1356725e3181dc99d0ef8b591",
	"simulatedExecutionBlockNumber": 82,
	"simulatedExecutionBlockTimestamp": 1683335138,
	"chainID": 1337,
	"baseFee": 7,
	"coinBase": "0x0000000000000000000000000000000000000000",
	"l2BridgeAddress": "0xe537d669ca013d86ebef1d64e40fc74cadc91987",
	"ftxRollingHash": "0x011fd18da43c28d9b5dba35fac37cb37a9171802567f6606ed13243c37e138c1",
	"publicInput": "0x09150951c64ffe21b67b56dfae4fead168f6348f2173c12b1daad8958b8d2107",
	"proof": "0x010413a259371113fa76ddace16a319671a5d18a34cb833d9206512de2b44d0dda4ad4b02eeef36d68b9ffe8623c3fc4018c9727c6f5b19d8d520954d87c0ee9e963e6f15888f14f63f5bd0999c5c876d6e9a8c656885587c1f59f12654397d40018b4f81fde99dbeb4fdab5cde081039e106e69b6a41b58d5d4cf6ec1677f25ebba852d5ea06fdad3a04b72428fda02009f610c0d39cb4618991d0945bddf9635107ecfd0d29cb1eef4e3d0490f589d1833ee837bc86a5f3fa8043ddde61b3b01a0dd0fc0eb625003be32ad23cf0522defaff645481dd2350474390646a5af67f5826dbcb887ec6e3af5374d76b7fe001a091ee3172a37f00a09e6007504bb66ca4811f46b64c39cefbb2581e032f209e68f2b09b0f5ef1f1115409eed8c5cf00ad855f0efe9ede37c2889b8251b0443ebf28995ff32e0acc890b2abdf1ca39f3eea5494fe0d6c0c10f112539b842bb017ab758169495b9b6cd7613005a60f2707bfbee60a644636f53acd9f715cb20206d0eceeb7f671dfa1d5ce6666d0fcf003d5f111c998d264bdba628f58c2a3ee6449f0e37c2be6c341af12cfdd1ab58ee2a2271f5346bedf5e53c16d4ee65af0005e419f6bcbfe4c7809dc1d563afb845f176a0d425d0e9aee81544bfb77ee7e704ebdab101fa65f5c11e4a13b6a5a50056f6a860c095d2bc96256d008f696ab847afeb1b12d3a5a9ae5647378dac4cf077466277655550aa82ff89436cb57c00f2dd79a379dabe60a394ea7a53c188bef3103ce3a5c8635fb31664949959d638ff8865edd522cf7b1cce927e174098003ef35e67a5dfcd079f270ca945cb0ade0de3b58585de8e06310c526a5f9ee0b7cffa1b58fecb3afe7c715d11173ac20049d0b787de069877ea755f3ed88f12ab4803e6442bead5021daf0b35299ee2a6fe501a62f115219c74985c753296750184f68222bc583513f9c96dd320074bf83125f2cec11903b79ca78764adb6a18e235c36c4875e9335deb1ec0a9e77d8015337d2ee48dce876ec1ef76cf02af691ab926cd9095286a8741e043a8d5a1c174d827e97e831b14a939eecf66abcfc000000070f037e038c4c88f11c6b1e31b4355d90351c435e708cf6589693b5f4f32702861184be08b5c1217da6fb4e16d68d8fab19d7b70f0bff7a7ffaa6a252d3dd4147003e29a05b58750a57e15ee5ec751759f8c723223cfcff763ad7cc4746761e810d97aa12117bd723a42b4e772e458420fcab6e3cc3d6b245735c17c5e1129da107ac04b05f776f0c690e5673ea6fe04d497731d40168b27e5cabed1af7974406084c236646592a3a239f5e0aa6bf2bfb3d2d95e88232c9cbd6ac3bf47945670b0e1cac3f3a9efd40a28015f93bef6088846b5528e774f06510ccf827a4b6166c006d6fc436e7d523a43b147507da360fd0812fee9766d5a491635bf952eb47a964ca5591ddc870a1dd06813f4bfeb68b00356af2b4dad3847e373ddedfd74f82c3eb526b22627cf27b7dba37e328343c12e6c1d2bd8b126cfe77949ecb0ae6230c3f76de68709511c02b1a3b1f0a9b49082c904a132daa15cf6f8b15853e379500000001004a9cc4189b77078f098b5204e54440b1beafb5d6c4c13e32b67167074e22e773870e957fb6d9542f1be9ab95d377fb00acc20b43e6f5c3e3382e745667c64e1ae1a872e6795f697b7b2c7fc93b1170243a7430e7ac4b2fb90da9db88bfbb7e",
	"verifyingKeyShaSum": "0x7855d3ca3e34d80d255b5503c01ea5b8c2b1c028e055fe033ff55626908093d4",
	"proverMode": "dev",
	"proverVersion": "4.0.0"
}