{
	"Transaction": {
		"type": "0x2",
		"chainId": "0xc0ddb",
		"nonce": "0x34",
		"to": "0xfeeddeadbeeffeeddeadbeeffeeddead01245678",
		"gas": "0x4523a8",
		"gasPrice": null,
		"maxPriorityFeePerGas": "0x6aed57c",
		"maxFeePerGas": "0x75d1e5f",
		"value": "0x32627d7c",
		"input": "0x",
		"accessList": [],
		"v": "0x1",
		"r": "0xdbeb15ee3893180c4f67753cd08fefe9d0ad6d34b26765ca64e44fa05a184f17",
		"s": "0x6c0181d0d189cbe3ecf8a53abff08b59125e7be1cce26a72994724314ac7ee78",
		"yParity": "0x1",
		"hash": "0x72f76d8d1a390cee05d407c1917eeff23c8d17647a333b137d0c5f6a5ab499ca"
	},
	"signer": "0x6b0d6247f69bd61ee6e9ff6f3d9af1ccd22cc5f7",
	"txHash": "0xc258ad69b1edd06c9ac52f223c9786f4b9f133720c5b039fcc51e9c67d6a7725",
	"rlpEncodedTx": "0x02f872830c0ddb348406aed57c84075d1e5f834523a894feeddeadbeeffeeddeadbeeffeeddead012456788432627d7c80c001a0dbeb15ee3893180c4f67753cd08fefe9d0ad6d34b26765ca64e44fa05a184f17a06c0181d0d189cbe3ecf8a53abff08b59125e7be1cce26a72994724314ac7ee78",
	"ftxNumber": 1,
	"prevFtxRollingHash": "0x0000000000000000000000000000000000000000000000000000000000000000",
	"ftxBlockNumberDeadline": 310,
	"invalidityType": "FilteredAddressFrom",
	"zkParentStateRootHash": "0x71f2678178afb93e136cacb045f55530714f20b1356725e3181dc99d0ef8b591",
	"simulatedExecutionBlockNumber": 82,
	"simulatedExecutionBlockTimestamp": 1683335138,
	"chainID": 1337,
	"baseFee": 7,
	"coinBase": "0x0000000000000000000000000000000000000000",
	"l2BridgeAddress": "0xe537d669ca013d86ebef1d64e40fc74cadc91987",
	"ftxRollingHash": "0x0e356124df8232bf366ac1c6b72d8e6dc7f64458f5aaa5e689f499f0c0c747c3",
	"publicInput": "0x0f6ce524e3973662bb79e40bcb542b9c000f8f91ec607c113e72b702f6da496a",
	"proof": "0x0147a8ad4048caa3dd0fb3655fa48fcae5cf0328665f57a3c77e54b8035e79ea2c8ea948485384e9bd84e1270cd8661d015f741768b2ee832ef1f07f8bfc9bfd2e9083ca0ec3f44e820fb8afa2ef22d0eb4538b531346b45a3cdc560ab38c29f00cc048be84044eb6d04ee70ca7227b4d685657c0de5963e7a4f2280bc674e6d359d57d33be3eec370a01ea0ad4a31b1008dbcca48a64f47208ea04dcd9e9627a977af3e60255ee1018eaabcefee9708ac4d128c3c5f68f39536683ede852b890077fe710b5372f9835dba5cba7289eb1a89dfc280f9e5d4864827986539375d74a0852d10211e1076d9b3d524ada57701817112eb71d0766cd179db6a2faad6310d65ca3b702c8563da42bc477e11cc423ec2ac8ffce9bf0eec6b720cc2f9a5004be7778f194bc1420e48f4a473bd33ec8966ee04d523ede3e1bb17ecce34e7e5cf5f2f354a4f52b644f83a9a3f1480008c2b36f5e0efbe9d54d0004975119a3b5cb2740cb188f35692a520fbe1b3fdd6c608f893e50f7aa91458fd73c54bc100bb5ddac4f5c4bda3101a053fe91409aec66a11594ca154f9b26485016ac22a711f8d9461e22a401e5a2631d130c9810021fedd0948d7de53dc1434e3974c11f5f5176f7aaa18f34061218fed3845cadf8074098f1fc46f6d15dd7c2987219a00185d08d5a11c95946ab75b19886c745abc6823236e5c0fce85e5fd906aeea010604d21fcefd8e30f2f973b8ef95aa3001ed24d6377a8ef6d5bd7ca10e75d1cdc11d325d470395c427ec502fa51c65e12f5e387b8f56360b3bf2e8689b31f17009eda2a38f2c51d68e7ac63db15a3d33ada0c16b2b37b0b4f5aa45d9623c346968d8d706ebe813b5555a95693335826008b23e84e0bbe5106933bce3b13ae0257293a041f536d4482152bfdb71c731d153e918d60832cc509a9f11dba292ae7012c1c6b315b34cf7cb0a8ee51a22dd9ce154117fee0bfcb293303ae3d185ecc3b45645b52535d857ccbea173d7190c40186cdc1f1ab1c76698df015180f855c898fe4ae0c53e11b9053eca7447531bcfa5709dcd8a59c6b814cd28af09c84f6000000070983be103c4fe813b8715f21d261599754123df3fec78faae37a8f20b555184500c7a53563181ad1c3e4df10b8278ee91cdde9d8883f936d108a53a07e011b2f01fb7699b7fb6a9550d167f6e7af6481cb28e729fd3b8e5aa627090e5472efba00fc98480665924cf6703a32e01c2af5a3e4cd9e98f12de2cc6319cc67f8de4c0090c73a70b42a56070e81e4f1f52ec5ae398c5e0776cd9ddc350cdc328d63951090f089756f54045e3b3cd6d60ae4d5933d5fcacfe99b328428b9e7df7efa7d0d6e5d52536e99a954fa66713f74c6b1f01ee52aec8346a1e1867bb8c0b0ee0100f3224c353c66c1c69cd057b339ef44f882bc0b9aa4b5cdcfbf12b43dbafe93aa1ed4c97f8cec14db6b82c30ef9f25100b52c6a37b101eb61ed68d0d61d9619ac529b668d603337e850d4cba8425836aca06b48a62dc187ba116f411929c4eb0b4f4fa2023d527da06cbf0c0ee2bfcb07c53e89bf988b6799d0546ddf9e2026000000010084c5ac7b4eb2fcd8baa7e2d061aec477ac02a6d54d8c5cbb56f3c3b4701d48c4e6b447e2220770ea22a70f61737c4001a73809e0535226a2fd13063989d4d0571290fd45f7848d865d83c5bf097c43eb921b4d0b9101b7dc99bd7a1282db38",
	"verifyingKeyShaSum": "0x26afc949874c05d4df7d592fa6da40ae80533db2c7ec11734a7186d17d817703",
	"proverMode": "dev",
	"proverVersion": "4.0.0"
}