{
	"Transaction": {
		"type": "0x2",
		"chainId": "0xc0ddb",
		"nonce": "0x34",
		"to": "0xfeeddeadbeeffeeddeadbeeffeeddead01245678",
		"gas": "0x4523a8",
		"gasPrice": null,
		"maxPriorityFeePerGas": "0x6aed57c",
		"maxFeePerGas": "0x75d1e5f",
		"value": "0x32627d7c",
		"input": "0x",
		"accessList": [],
		"v": "0x1",
		"r": "0xdbeb15ee3893180c4f67753cd08fefe9d0ad6d34b26765ca64e44fa05a184f17",
		"s": "0x6c0181d0d189cbe3ecf8a53abff08b59125e7be1cce26a72994724314ac7ee78",
		"yParity": "0x1",
		"hash": "0x72f76d8d1a390cee05d407c1917eeff23c8d17647a333b137d0c5f6a5ab499ca"
	},
	"signer": "0x6b0d6247f69bd61ee6e9ff6f3d9af1ccd22cc5f7",
	"txHash": "0xc258ad69b1edd06c9ac52f223c9786f4b9f133720c5b039fcc51e9c67d6a7725",
	"rlpEncodedTx": "0x02f872830c0ddb348406aed57c84075d1e5f834523a894feeddeadbeeffeeddeadbeeffeeddead012456788432627d7c80c001a0dbeb15ee3893180c4f67753cd08fefe9d0ad6d34b26765ca64e44fa05a184f17a06c0181d0d189cbe3ecf8a53abff08b59125e7be1cce26a72994724314ac7ee78",
	"ftxNumber": 1,
	"prevFtxRollingHash": "0x0000000000000000000000000000000000000000000000000000000000000000",
	"ftxBlockNumberDeadline": 310,
	"invalidityType": "FilteredAddressFrom",
	"zkParentStateRootHash": "0x71f2678178afb93e136cacb045f55530714f20b1356725e3181dc99d0ef8b591",
	"simulatedExecutionBlockNumber": 82,
	"simulatedExecutionBlockTimestamp": 1683335138,
	"chainID": 1337,
	"baseFee": 7,
	"coinBase": "0x0000000000000000000000000000000000000000",
	"l2BridgeAddress": "0xe537d669ca013d86ebef1d64e40fc74cadc91987",
	"ftxRollingHash": "0x0e356124df8232bf366ac1c6b72d8e6dc7f64458f5aaa5e689f499f0c0c747c3",
	"publicInput": "0x04dd54b4fb4ede7acdbb8fffa57bccb696ae20545267dd1678ca2c65fdb96897",
	"proof": "0x006a4103060c93c5d85ebd11021e28dde2f5c7df0f45ef7d586752846c962aa780e8fd5aa2c5c2344f97b17cd114095101a0d3281e56cdab0ac791c57d2d61c024d6a15b8d10f5464f34597eecae5603186ddf712593cafcf0a2b34e3f496f130132b689a4818400b16e004e7acc2b6d1c2dfd0d5f837d45c7c108a5c446fbb5f7f61ad18cdcbfc862ba869e1a8e7272002d7379eed843b98c71907e6555f7d2eb0c49b2a45c66bff110ddb411debe91dfafa70417d6680119d0457abdb738b9003d1f4f5346b37ee909db9e80159cc12115df485693df4cb1a0af6db5a336a5df4512ed67536f4491147a891f669218017f3da6876f35d9b4822ae41465a818ab2b77a005e3e06ed594e2e0727c0041be338dd5b06df7e8dd76d5e01dc89fa000a36585730e2d2326d610b299bde5ae725fa9eccb92d602c47607886ecdc5901cf3de285cbeb86658329206958f5f07013879a4c03e636af72328f13b7d0aee8e23b35dd978cb062446ee45f7d41de1c0646003fd53430e8e8fab0110f8d617017842b0c54ed6fdd72dfc1180a8ce0c8529abbb3330a5299e593f31ffa748d9d413c35acef80d5e7245b9ab10e5abb30039d860afdf74dd0fb48889a6bcf44ac597e206b8417c3f2a5ce896ef6d7ec5a5761e0b48e8d668027e41486f3def7800b98dea2dcd2da64f295c2f312f2224accd101d045c2d9c734e46cf996b0a2f09ee1a3e5f6d9f64de04215052ce931200bab260fec639a83b2b860a29855d5769165ba4eacb9302d9b9675e89c91c53b4eeb1595f38926487677ef419a88ffa00add4cf228850cd4ada305ca0e03394d780a86fff8170962fe578007f10dcf93a43ed34adb2507068cd0554778bc9450003115f53c4eeda582239c71072dfb82fa5f393c47141a72587be1adde0a207b7cacfe7ab47ec1daf485ebd01bdab8800b1c70d922a86e1b2ed10eb65d4410c540e219d482d2f2e6d10167bf745fcb0c46977583ac1236ad26e4d1bcbe52e02009a4c0c29813668f7c48c469b4f3418ae211c6531816e598332aa5a45826159fdb5c34da9d196e559fa569df4393f50000000070f7c9dde861a4d0b463bc4fffbcb6a6ef0c3bde7bd221fc3c8a59776b570f6db0ea8f7ef63d8e9fe871babed2fa02ffba39201f5aa487b33213d5038bc7a6cd3119388e4fb6804428204afe55197df522822a7630e31e0eb1801f3b08383b6240ec5cc7a05ee41fa4442163f4084bbec53dfbcd8586b27026d9f8f2f26eab5d3096f60668a0d6ee3eeb0cabce3faf059f3000c8d3d5afe81f70bd410a4bb7ffc000ad47503ffe54d62f7fa35f4c68927e98de141d6ba10820ef4da78b9b6f5b7004a99651ef2186183d1c060371c03e594d38bfa70c1311822244f7108f237730123075cb636a99c738bf130b6c121a3c2a591913ca600358cf62a38fa32f297a3bfe7d0bccf8bb6de1db1ba9eac578301ab12c280c2b25981a86b67084967f2f29e481e2d79658ff784894688835dd9af69c7f04f5d08d66eff290279aea7ca11ee15ecab34b4616907a2d40356b42127f07023a9caf97eadb281a30f1a266400000001009b8cfbc13db9ff7581a47653e0b0ff5d02e8fde3ed394e8071a3f51aa7ab0194849ea66cb9f91478cb00f066fc82db019bd275e75639c08b0b4b7885c27e8fcda3e384733ae7ddf63612f0496d2549c27cdcfde4f798472c8b9b22d7192f4a",
	"verifyingKeyShaSum": "0x26afc949874c05d4df7d592fa6da40ae80533db2c7ec11734a7186d17d817703",
	"proverMode": "dev",
	"proverVersion": "4.0.0"
}