{
	"Transaction": {
		"type": "0x2",
		"chainId": "0xc0ddb",
		"nonce": "0x2",
		"to": "0xfeeddeadbeeffeeddeadbeeffeeddead01245678",
		"gas": "0x4523a8",
		"gasPrice": null,
		"maxPriorityFeePerGas": "0x6aed57c",
		"maxFeePerGas": "0x75d1e5f",
		"value": "0x32627d7c",
		"input": "0x",
		"accessList": [
			{
				"address": "0xaaaaaaaaaaaaaaaaaaaaaaaaaaaaaaaaaaaaaaaa",
				"storageKeys": [
					"0xaaaaaaaaaaaaaaaaaaaaaaaaaaaaaaaaaaaaaaaaaaaaaaaaaaaaaaaaaaaaaaaa",
					"0xffffffffffffffffffffffffffffffffffffffffffffffffffffffffffffffff"
				]
			}
		],
		"v": "0x0",
		"r": "0x72cbf06f569f240ce8dee7cc3805dd714c98d52388afc022801e741bf740d298",
		"s": "0x7acac7e09642385ee5e3ec4dcaa38d6f30a840ea9d290a84084c5e93d50a5ede",
		"yParity": "0x0",
		"hash": "0x3aa7648351cd09101ca7045a0c21315495c68ccd6ac3d71d250e637ec8a04daa"
	},
	"signer": "0xca29fa76bacc2d9d2cd5f779df601cc9f1225ff1",
	"txHash": "0xb3070ae3ee744dbafdb392a989aec9f299761d6163f6d4390f2593d37bb625b2",
	"rlpEncodedTx": "0x02f8ce830c0ddb028406aed57c84075d1e5f834523a894feeddeadbeeffeeddeadbeeffeeddead012456788432627d7c80f85bf85994aaaaaaaaaaaaaaaaaaaaaaaaaaaaaaaaaaaaaaaaf842a0aaaaaaaaaaaaaaaaaaaaaaaaaaaaaaaaaaaaaaaaaaaaaaaaaaaaaaaaaaaaaaaaa0ffffffffffffffffffffffffffffffffffffffffffffffffffffffffffffffff80a072cbf06f569f240ce8dee7cc3805dd714c98d52388afc022801e741bf740d298a07acac7e09642385ee5e3ec4dcaa38d6f30a840ea9d290a84084c5e93d50a5ede",
	"ftxNumber": 2,
	"prevFtxRollingHash": "0x0e356124df8232bf366ac1c6b72d8e6dc7f64458f5aaa5e689f499f0c0c747c3",
	"ftxBlockNumberDeadline": 400,
	"invalidityType": "BadBalance",
	"zkParentStateRootHash": "0x71f2678178afb93e136cacb045f55530714f20b1356725e3181dc99d0ef8b591",
	"simulatedExecutionBlockNumber": 82,
	"simulatedExecutionBlockTimestamp": 1683335138,
	"chainID": 1337,
	"baseFee": 7,
	"coinBase": "0x0000000000000000000000000000000000000000",
	"l2BridgeAddress": "0xe537d669ca013d86ebef1d64e40fc74cadc91987",
	"ftxRollingHash": "0x011fd18da43c28d9b5dba35fac37cb37a9171802567f6606ed13243c37e138c1",
	"publicInput": "0x0e144dd623f5aeb10033f138af7e06a00a6b5a8c5808e268234610e2c7fa2d80",
	"proof": "0x00566864b79018e3b865358a445e01b4a78a8f2e2009607ec60f26db90039b3d7758e2a023c95aa067aa5af856048cd40189f283757189b506580b0718cb9d561cdc6536ec02709102f9aa2d829039e462cb05a1c5f97bb12272e638651b500301426024e7492210e466620ed2daa9b1c0b8f18a5463feeddc491cac4cf8428e15467dcd6be4f266e6ff57928eeeb52a0108809ca196f26edba1ebd9d63beb4c6be1e5f8286c94bfe5837b18d4b8a2dd80952e7bf3a38b5f0481452f0829a8f9010d4376c66319a64b65486aa54e5897a86d65f8c084bd2e0039282ec7cf6de4ba318f409cd9f1b54a913257a1bcb59d01995c797674a6e89b47ee33dc166c14b62c72617f12f4319ff482727290975c324cce3b453ed73267773a2f61abd3b301025ca1a02507165e6ed641fc81231779b23e75321c9233750070b839e2c69b4a1989905315e7ac880c6b98500e8b46007c6723f7caa4c24df7205450ce6cee44b806671a5a1835bda0abb869fb0138b3c0415d540d4af78122c27f73a8454200073ff7c2db074a035fddc020f2971e82afddbfec40a44a3c9198963d58731c00018f4c97431d3f750ded4c96db755300773085f0fcb898049cdeb1c29345b9400cc802974bd4157a06be8a1c03513f6df432b5f0fce1b0cde47641bd825ddc018e5395045b1d8726110633818dbe02f0c332bb628383c9b7b5298cddd7e8d5db443a6739a9473159c91eada61689fe01191a107a72e12d2f4b8b0b8115b4e1c6b3249f270c84487298df1cc3fcceff5792e4fa26bef9d462a2de106b46ee91006bcfdbfb20edc25ee805734aee6c4d323a49b2ded84c138e7be65599a1889dadd1b5f6bf3c347dff5ff03275c9f00f0082939afee697342645f24d2a70e9c982a76faf7516d827bde3125997066c8ae3c8c2283cbe99fc08f2903413528eda016609a3128530e1870a62da12d2b4af374698b015ab9f9f897efc8d966af69d629a3c102b53c1d0d99ca34b8ca7b38b0046effdfceca7ffc64a75de715a5dffb1925cc1f9861e115b4594b0ec62a7ee990d887b8bdda46dc025e8cf54cebb050000000702fab38945c96ed07fdb503e50ed19b7bb60407c51f3f0232566cf7f6c4831230c62770c99c3fdec6e8a1c0019a179123a0f0e5fa2f0838897c615845a44f7bf04b3c19426510fe33845de8d3ca87ebf2b01dad36404343a6e797145cd5188b10a906e35fc894615111827bd3c236767346b3723c1925f7d0b3696b333e52f87115524cf08779f695ee6a83464661213b22e4e1bc8ab2c2f1e87ecd1fa8b1c8007654e5da64ba752f26e1c4bd0efad3c623b7cc02e3bc3936e4944699543328c0a2402623be312593dca47be0dcffadc607902c49d3962d614cb7d3361ca9d5900a53e7eb4329378dbc78be8b1b015350117b83b0a139f9ebad0dc1ba8f4dd4651e12d91493e0a1a387ba7ee7af9c864012bddf99c6b87e162acd75849029f79025ca66a615690142b586bd99730580421c0a3838e65a4040624d3c9d66d852800ae0562e73cf47e2df83d84a347a89602a312fd576dd6af34026929ac69f4670000000100ccc7d4a2788523cbaf5543e09b5bc2be207ad9c4ad4905a5b76d56ba27d880208f56d144f5d5e4344c0290c370153c012d2695b6434e74597137c2aed8d2313feae8e7a7ae22ba8f9d2e83ec925cf93d07a525babf9a0871ea1493d9381f4a",
	"verifyingKeyShaSum": "0x7855d3ca3e34d80d255b5503c01ea5b8c2b1c028e055fe033ff55626908093d4",
	"proverMode": "dev",
	"proverVersion": "4.0.0"
}