{
	"Transaction": {
		"type": "0x2",
		"chainId": "0xc0ddb",
		"nonce": "0x2",
		"to": "0xfeeddeadbeeffeeddeadbeeffeeddead01245678",
		"gas": "0x4523a8",
		"gasPrice": null,
		"maxPriorityFeePerGas": "0x6aed57c",
		"maxFeePerGas": "0x75d1e5f",
		"value": "0x32627d7c",
		"input": "0x",
		"accessList": [
			{
				"address": "0xaaaaaaaaaaaaaaaaaaaaaaaaaaaaaaaaaaaaaaaa",
				"storageKeys": [
					"0xaaaaaaaaaaaaaaaaaaaaaaaaaaaaaaaaaaaaaaaaaaaaaaaaaaaaaaaaaaaaaaaa",
					"0xffffffffffffffffffffffffffffffffffffffffffffffffffffffffffffffff"
				]
			}
		],
		"v": "0x0",
		"r": "0x72cbf06f569f240ce8dee7cc3805dd714c98d52388afc022801e741bf740d298",
		"s": "0x7acac7e09642385ee5e3ec4dcaa38d6f30a840ea9d290a84084c5e93d50a5ede",
		"yParity": "0x0",
		"hash": "0x3aa7648351cd09101ca7045a0c21315495c68ccd6ac3d71d250e637ec8a04daa"
	},
	"signer": "0xca29fa76bacc2d9d2cd5f779df601cc9f1225ff1",
	"txHash": "0xb3070ae3ee744dbafdb392a989aec9f299761d6163f6d4390f2593d37bb625b2",
	"rlpEncodedTx": "0x02f8ce830c0ddb028406aed57c84075d1e5f834523a894feeddeadbeeffeeddeadbeeffeeddead012456788432627d7c80f85bf85994aaaaaaaaaaaaaaaaaaaaaaaaaaaaaaaaaaaaaaaaf842a0aaaaaaaaaaaaaaaaaaaaaaaaaaaaaaaaaaaaaaaaaaaaaaaaaaaaaaaaaaaaaaaaa0ffffffffffffffffffffffffffffffffffffffffffffffffffffffffffffffff80a072cbf06f569f240ce8dee7cc3805dd714c98d52388afc022801e741bf740d298a07acac7e09642385ee5e3ec4dcaa38d6f30a840ea9d290a84084c5e93d50a5ede",
	"ftxNumber": 2,
	"prevFtxRollingHash": "0x0e356124df8232bf366ac1c6b72d8e6dc7f64458f5aaa5e689f499f0c0c747c3",
	"ftxBlockNumberDeadline": 400,
	"invalidityType": "BadBalance",
	"zkParentStateRootHash": "0x71f2678178afb93e136cacb045f55530714f20b1356725e3181dc99d0ef8b591",
	"simulatedExecutionBlockNumber": 82,
	"simulatedExecutionBlockTimestamp": 1683335138,
	"chainID": 1337,
	"baseFee": 7,
	"coinBase": "0x0000000000000000000000000000000000000000",
	"l2BridgeAddress": "0xe537d669ca013d86ebef1d64e40fc74cadc91987",
	"ftxRollingHash": "0x011fd18da43c28d9b5dba35fac37cb37a9171802567f6606ed13243c37e138c1",
	"publicInput": "0x10c6f314afd2bfbbdf07ca00d006d970fd70e3f82d46d24b04e5d8aa539d567c",
	"proof": "0x0088dde49932986a591989769606cddae1905b4602dd5729f3ee29062e514ca3226bb9d3477b15ca291b6d0df2ff1346001ea42a5c154d0b03fa5034c42dfebe8a8dd157515993362b2d034b5df5eb3609afb0fe67de6eac8c44ef17af3bac1801ad6d4d4a22d96b162dc74d199e9df7761482a8a18a74dd06722a533de2ead16ecf20900c5166ce080b364a4659ca8b00c2dd9eff35d207169afc86dae10c6163b189dbb2f82383c403f62c92bf9cdc00a413a2eba09ea953ff5e89617e8fc300290eb72c878554c7c6f0ee656264d2a8d6df0da9b7a77d29ea8c4b6a5fdfb2efed9033f843798bd257020fbd0ac47900840c3eddfe8aea284477e5e3306cf9c4388425c7c378951684362776ee041905b965ee362131d0174340480acdf575008d19175feec403db8c9088b8b33ca8737227362ae35d0985a030f5fbdd2749b724192aee0dafc81466e8a3af492f740006c2982d1879e67ba3ac1d2728e4f45f3030c8b63590d3a28145b7782de487fe91d76bb9acf919ca114e2e3e2662df00468e8b62f00b4047b217cdf645a450b90e7b8413c5ef93acb647ae691c65675e66acfa50ce674de123c7ab54cd32fe0134c37ea2454eb4f5f44f20919004e20e3e256e41f2643f8b5d6bd744ccfb14dbddda30d400ffdc49506569edc3116c00e7762b1a27787b9c376a3e735d275badfbe31ed1dd9a5cd34539e7b623ad41c2361207c116e0f2a44671d9c822283100146b3ae52be238683f1838444ce547bfd2fc17a69b54886a9a5090b195cfc39361fe3c8d79eec25c1964a4b21b5c830085a7e69a322dae6834ee7bd26e2153ba29bdb14310ae0e2f5687b96802249919322e1f1daf3261611110a79eb5c73c015022cca74ed303a0093fc4ce47a1883c09fbe4cdaa7b0975e20727100c8c808292459ea088e0340ebc7da0d5e0e0d401468c6a4cad092b98c4767d318832e185842afaa57f5b20b6083663245a2776eef858166dc192b1730c5198488bab5a01ac30216211fe84e08da7e76db038ffa83e46f186b28cd2fd6b1acabf0ffd6a7fca21af4dae71748e9e640a23db68750000000703a3ffc155f4845b4c5a97ef8ca60cb861fd7e0ca30b317ee6efbee666491d5005f9e8b470611f80b3168ec5f34ee8de07589df66b91289d4953051f069e4414045621bb196fd0872c85157e259ff866cec9769ad6a4a68b7a9241c0b40834ff0be400e8ce3810edaf97c7a3b6cbe77ef5644266fdac5e53bed2ae4286e6713e058063eaeed768652693e69b86fb64717316e01357966ca7ef617a85ca86ebb506ae5cfa31b4287e67b11e7268b01ce7fef982351638e12080a820f893d80507016aef312f5d460a6dfb5e49bca6a47ad186b152faca59097d2788ed7ab41080016ddfdc677be515bcda20a2724cc6f0961e893e9477c6a20c0e2a0ddcd0c9485c2b63f8952cfef8e0b4669b58d902ff008a9208ac9d079d7b582c249a9df68b1e312d3964c4b0f3a0b8c3ec4bb8216ac49c5ea7148719e8b7ee6874296066210f208a9268aae9956cf4bf70c6700f370f50c315e1a4068a3b34999864e7c23f000000010168fb9aab144f3808939d7b05c3019a4745c05a27d1634e6225827416fa7a320d54b94deb879ff073fe2bc9d2d212b800466386863d50fec07a0996d4824535d627c03efecf98fbb4d32a4d3e6f91e721890e84918f7b8a5b1cb261218a2e45",
	"verifyingKeyShaSum": "0x7855d3ca3e34d80d255b5503c01ea5b8c2b1c028e055fe033ff55626908093d4",
	"proverMode": "dev",
	"proverVersion": "4.0.0"
}